:020000040800F2
:10000000F0160020814300086D4100086F41000890
:1000100071410008734100087541000800000000AC
:100020000000000000000000000000007741000810
:1000300079410008000000007B4100087D41000874
:10004000D1430008D5430008D9430008DD43000828
:10005000E1430008E5430008D9410008ED430008EA
:10006000F1430008F5430008F9430008453D000846
:100070000144000805440008094400080D44000834
:100080001144000815440008194400081D440008E4
:100090002144000825440008294400082D44000894
:1000A0003144000835440008394400083D44000844
:1000B0004144000845440008494400084D440008F4
:1000C0005144000855440008594400085D440008A4
:1000D00061440008654400087B3200086D44000854
:1000E00071440008754400087F4100087D44000801
:1000F0008144000885440008894400083D3D00080B
:100100009144000895440008994400084D3D0008BA
:10011000A1440008A5440008A9440008AD44000813
:10012000B3410008B5440008B9440008BD440008C4
:10013000C1440008C5440008C9440008CD44000873
:10014000D1440008D5440008D9440008A94100085A
:10015000E1440008E5440008E9440008ED440008D3
:10016000F1440008F5440008F9440008FD44000883
:100170000145000805450008094500080D4500082F
:10018000114500081545000800221100C2685FF003
:10019000FF335360C2685FF0FF33536151F0004199
:1001A00051F40061C2689161704770B582B004007B
:1001B0000025002600200090032000F040FEE068AB
:1001C00000690090761CE448864201D300201BE0C1
:1001D0000098C00F0028EFD000200600009850F0D3
:1001E00001000090E06800990161E06800690090FA
:1001F000761CD948864202D20098C007F5D4032065
:1002000000F01DFE2800C0B276BDF0B5040000204D
:10021000E578002D1BD1002500269BB213F1030CBD
:100220005FF0040E9CFBFEFC6546D2B214EB820C20
:10023000DCF8D0C067465FF0000C6646AE4206D2DE
:10024000D1F800C0C7F800C0761C091DF6E7C0B29F
:10025000F0BD70B403000800002192B2D41C042544
:1002600094FBF5F4D3F8D05000263100A14204D21B
:100270002E680660491C001DF8E770BC704770B41A
:100280000200002400200025D5700125957040252E
:100290009580C9B201290ED15FF0A0452C0001253F
:1002A000D57208251570042555704FF4A075D580BA
:1002B000022515720DE0C9B200290AD1A74D2C0004
:1002C0000025D5720C251570062555704FF4A065D4
:1002D000D580D46014F50065156100252B00557894
:1002E000AB420FD212EB830514EB431616F51066E2
:1002F000AE6112EB830514EB431616F530666E659E
:100300005B1CECE714F58065556114F58865C2F84F
:10031000CC5000252B001578AB4209D212EB830597
:1003200014EB431616F5A066C5F890605B1CF2E767
:1003300000252B001578AB420BD212EB83054FF44E
:10034000805606FB034616F58056C5F8D0605B1C48
:10035000F0E714F56065C2F80C51C0B270BC70478C
:100360002DE9F843040000250020060000200700C6
:1003700000208146207A01282FD1E068806B070099
:1003800037F48037607A002801D057F48017E0688E
:10039000876300200600E068C068060036F040066B
:1003A00036F4800656F0100636F0080636F0800661
:1003B00036F4003636F40026E068C6602000FFF709
:1003C000F4FEE078012853D1052060F3440959F088
:1003D0002009E068C0F808904AE0E068C0680600BC
:1003E00056F04006E068C6602000FFF7DEFE002001
:1003F000070057F48037207A032801D157F40037DB
:1004000057F4802757F4002757F40017607A002824
:1004100001D057F48017E0688763142000F01BFDBB
:10042000E068C0680600207A032801D156F48036BF
:10043000E068C660207A03281AD1E068006B804625
:10044000012060F39B6838F4000858F080582D2094
:1004500060F31648E068C0F83080C82000F0FBFC6C
:1004600058F40008E068C0F83080C82000F0F3FCC1
:10047000E07801280AD1E06880688146052060F3B1
:10048000440959F02009E068C0F808902800C0B27B
:10049000BDE8F28310B40100002000231A0052F0DE
:1004A0000102CB689B681343CC68A360C0B210BC48
:1004B000704710B40100002000231A0052F001021E
:1004C000CB689B689343CC68A360C0B210BC7047F4
:1004D000F8B504000D0000260027002000900098C9
:1004E00050F020000090009865F38A100090E068BA
:1004F00000990161E068006900907F1C16488742FE
:1005000004D20098C0F340100028F3D1032000F07B
:1005100096FC3000C0B2F2BD70B582B00400002578
:10052000002600200090009850F010000090E06835
:1005300000990161E06800690090761C06488642D7
:1005400004D20098C0F300100028F3D1032000F07B
:1005500076FC2800C0B276BD410D030000000440C7
:10056000F8B504000D000026E068C068070037F009
:10057000005737F08047EDB2012D02D157F00057F8
:1005800004E0EDB2002D01D157F08047E068C7606C
:10059000322000F060FC3000C0B2F2BDC06840699B
:1005A00010F00100704710B504002000FFF7F6FFBF
:1005B000012801D0012000E00020C0B210BD0100E0
:1005C0000020CA6852691000CA68926910407047DA
:1005D00003691B681A00C9B261F3010203691A605A
:1005E00070472DE9F84F040000208DF8000000202E
:1005F000050000208146002082460020834600201E
:100600000700D4F80C0100210160206900688146D0
:1006100039F4C0592069C0F80090E07A01282CD143
:1006200003212000FFF7D4FFE068802141624020D1
:1006300060F31F4A802060F30F0AE068C0F828A02A
:100640001AEB1A4060F30F0B802060F31F4BE06839
:10065000C0F804B11BEB1B40C0EA0B0B1FFA8BFB6D
:10066000E068C0F808B11BEB1B4080B250F0000BF3
:100670001FFA8BFBE068C0F80CB110212000FFF7D7
:1006800027FF2000FFF748FF206900210161206952
:100690000021416120695FF0FF3181612069002103
:1006A000C161002006006078864220D214EB8600EB
:1006B000806900680500E80F002806D000200500CA
:1006C00055F0804555F0006501E00020050014EB71
:1006D00086008069056014EB860080690021016155
:1006E00014EB86008069FF218160761CDBE7002027
:1006F00006006078864220D214EB8601496D0968B5
:100700000800C10F002906D00021080050F08040E9
:1007100050F0006001E00021080014EB8601496DF3
:10072000086014EB8601496D00220A6114EB860112
:10073000496DFF228A60761CDBE70020070057F432
:10074000807720690069B843384321690861E078FF
:10075000012810D10020804658F0010858F0020806
:10076000402060F38A0858F48038402060F35948EC
:100770002069C0F83080200000F004F89DF80000E7
:10078000BDE8F28F70B50400002500200600E06887
:1007900000218161E0685FF0FF3141612000FFF7D7
:1007A000F3FCE078002801D156F0100656F40066FC
:1007B00056F4805656F4005656F4802656F4002619
:1007C00056F0080656F4801656F40016E068806964
:1007D000B0433043E16888612800C0B270BD0100B9
:1007E00000200B699B681A00530813F00303002BC9
:1007F00005D0022B09D005D3032B03D007E0032338
:10080000180004E00223180001E001231800C0B220
:10081000704770B40100002000252C000D69AD6800
:100820002A008D692D682B00550815F00305002D51
:1008300004D0022D05D001D3032D05D1DB0ADB0244
:1008400002E0032565F30A038D692B6054F480747C
:100850000D696D68A54325430E697560C0B270BC13
:100860007047F0B402000020002633000026340058
:100870004E78012E0BD10E7812EB8606B669350044
:10088000012691F90070BE4066F30F040AE00E786D
:1008900012EB8606766D3500012691F90070BE4098
:1008A00066F31F442E683300C3F3C036002E0DD10B
:1008B0008E6866F30A03CE7866F39343CE8866F3B8
:1008C000995353F0805353F400432B601669F66933
:1008D00026431769FE61C0B2F0BC7047F0B4020055
:1008E000002000263300002634004E78012E0BD164
:1008F0000E7812EB8606B6693500012691F9007074
:10090000BE4066F30F040AE00E7812EB8606766DA1
:100910003500012691F90070BE4066F31F4433F4A0
:1009200000432B601669F669A6431769FE61C0B2E1
:10093000F0BC70472DE9F04704000D0000265FF081
:1009400000090020070000208246687801286BD14A
:10095000287814EB8000806900680700287814EB81
:1009600080008069006982466869002807D15FEAD3
:10097000DA4A5FEACA4A012060F3DC4A11E068699A
:1009800060F3120A6869A9680818401EA968B0FBDC
:10099000F1F060F3DC4AE878012802D1012060F32D
:1009A0005E7A287814EB80008069C0F810A0E078A7
:1009B000012806D1287814EB8000806929694161FB
:1009C00010E0E87801280DD0686900280AD00120DD
:1009D00095F90010884081462069406B59EA000073
:1009E00021694863E87801280AD120698068804637
:1009F0005FEAC85002D457F0005701E057F0805723
:100A000057F0806757F00047287814EB8000806922
:100A10000760E87801284FD16B699BB22A78E968B2
:100A20002000FFF7F2FB47E0287814EB8000406DD0
:100A300000680700287814EB8000406D006982464A
:100A40006869002806D1A86860F3120A012060F3E3
:100A5000DC4A0EE06869A9680818401EA968B0FB66
:100A6000F1F060F3DC4ACAF3C940A968484360F377
:100A7000120A287814EB8000406DC0F810A0E078CE
:100A8000012805D1287814EB8000406D2969416167
:100A9000E878012807D16879002802D057F000577C
:100AA00001E057F0805757F0806757F000472878EB
:100AB00014EB8000406D07603000C0B2BDE8F087E5
:100AC000FCB402000020002500263300002600961A
:100AD0004E78012E49D19669340026683300266984
:100AE00000964E69002E09D1009EF609F601009687
:100AF0000126009F66F3D447009715E08E684F6982
:100B0000BE4207D28E684E618E68009F66F306076C
:100B1000009704E04E69009F66F3060700970126E0
:100B2000009F66F3D4470097009E2661D678012E79
:100B300005D10E7812EB8606B6690F69776153F01E
:100B4000806353F000432360D678002E4BD14E696A
:100B5000002E48D0012691F90070BE403543166939
:100B6000766B2E4317697E633DE00E7812EB8606A6
:100B7000766D366833000E7812EB8606766D366930
:100B800000964E69002E0AD18E68009F66F3060714
:100B900000970126009F66F3D44700970BE08E680C
:100BA0004E618E68009F66F3060700970126009F3E
:100BB00066F3D44700970E7812EB8606766D009F99
:100BC0003761D678012E05D10E7812EB8606766D48
:100BD0000F69776153F0806353F000430E7812EB96
:100BE0008606766D3360C0B2F6BC704730B4020042
:100BF000002000252C004D78012D0FD10D7812EB2F
:100C00008505AD692B001D682C00E50F002D01D076
:100C100054F0804454F400141C6009E00D7812EB89
:100C200085056D6D2B001D682C0054F400141C60AC
:100C3000C0B230BC704730B40200002000252C0048
:100C40004D78012D05D10D7812EB8505AD692B008E
:100C500004E00D7812EB85056D6D2B001D682C00EE
:100C600034F40014CD78032D02D0CD78022D01D1BB
:100C700054F080541C60C0B230BC704701000A6957
:100C8000926910000A69D2691040000C7047020096
:100C9000C9B212EB81035B6D9B68180013695B6935
:100CA0001840704701000A69926910000A69D26908
:100CB000104080B2704782B000210091009951F03D
:100CC000404100910121009A61F3D4420092182121
:100CD000009A61F306020092416D009A0A61C178A0
:100CE00001290FD100221100426D00F2C853536157
:100CF000426D1268110051F000415FF08022110036
:100D0000426D116002B07047817A00290ED00369EC
:100D10009B681900CB0709D5D0F80C311A0032F0C6
:100D2000020252085200D0F80C311A60704710B419
:100D300050F8041B81B102681218001D50F8043BE2
:100D4000DC0744BFA9F10104E31852F8044B43F84F
:100D5000044B091FF9D1EBE710BC70471CB5040028
:100D60000121012000F000F94FF4D8500090032039
:100D70008DF8050002208DF8040000208DF8060093
:100D800000208DF8070000A9204800F04DF90A2244
:100D900008211E4800F0ADF90A2209211B4800F085
:100DA000A8F90A220B21194800F0A3F90A220C2104
:100DB000164800F09EF94FF48060009001208DF8F5
:100DC000060001208DF8070003208DF8050000A91A
:100DD0000E4800F029F90A220A210C4800F089F98E
:100DE00001214FF4804000F0ECF80121802000F058
:100DF000CAF801215FF0805000F0F2F801210020D4
:100E000000F0A4F9012000F045FA13BD00000240F3
:100E100010B582B004004FF4C06000F049FA4320DE
:100E20008DF8000001208DF8010003208DF80200EC
:100E300001208DF8030000A800F03FFA13BD002147
:100E4000782202FB00F20723B2FBF3F2491C8A422C
:100E500000D3FBE7704710B504004FF47A7000FB35
:100E600004F0FFF7ECFF10BDF0B4002100220023D6
:100E7000022400250226DFF888713F6817F00C076E
:100E800039000F00002F04D0042F06D0082F08D0FF
:100E90003CE0DFF8747107603BE0DFF870710760D9
:100EA00037E0DFF860713F68C7F380573D00DFF837
:100EB00054713F6817F03F073E00002D0DD0DFF85A
:100EC0004C71B7FBF6F7DFF83CC1DCF800C0CCF39F
:100ED000881C0CFB07F73B000CE0DFF82C71B7FB1C
:100EE000F6F7DFF820C1DCF800C0CCF3881C0CFB5F
:100EF00007F73B00DFF80C713F68C7F301477F1C21
:100F00007F003C00B3FBF4F7076002E0DFF8F87005
:100F10000760DFF8EC703F6817F0F0073900090947
:100F2000DFF8EC70CF5D3A000768D7404760DFF824
:100F3000D0703F6817F4E0573900890ADFF8D070A5
:100F4000CF5D3A004768D74087602D4F3F6817F460
:100F500060473900490BDFF8B870CF5D3A00476849
:100F6000D740C760F0BC7047C9B2002905D0294AF4
:100F700012680243274B1A6004E0264A1268824333
:100F8000244B1A607047C9B2002905D0224A126862
:100F90000243214B1A6004E01F4A126882431E4B31
:100FA0001A607047C9B2002905D01C4A1268024372
:100FB0001A4B1A6004E0194A12688243174B1A60F0
:100FC0007047C9B2002905D0154A12680243144B74
:100FD0001A6004E0124A12688243114B1A6070478B
:100FE000C9B2002905D00F4A126802430D4B1A609E
:100FF00004E00C4A126882430A4B1A6070470000F2
:1010000008380240043802400024F40000127A003C
:10101000FC000020303802403438024040380240A2
:101020004438024020380240F0B40022002300245B
:1010300000252A00102A4AD2012595402B000D6870
:101040001D402C009C4240D1056803261700FFB2CA
:101050007F00BE40B543056005680E791700FFB2FA
:101060007F00BE40354305600D79012D02D00D791A
:10107000022D1AD1856803261700FFB27F00BE40FB
:10108000B543856085684E791700FFB27F00BE408A
:1010900035438560456801269640B54345604568FF
:1010A0008E799640B6B235434560C5680326170071
:1010B000FFB27F00BE40B543C560C568CE7917005A
:1010C000FFB27F00BE403543C560521CB2E7F0BCA2
:1010D00070474FF6FF7101600021017100214171DD
:1010E000002181710021C1717047018370474183E4
:1010F0007047F0B400230024D2B211F00705EDB21E
:10110000AD0012FA05F52B0089B2CD1010EB850564
:1011100089B2CE1010EB8606366A0F2711F0070C45
:101120005FFA8CFC5FEA8C0C17FA0CF7BE432E6258
:1011300089B2CD1010EB85052D6A1D432C0089B2B4
:10114000CD1010EB85052C62F0BC704730B585B032
:1011500004000D000121E4B2254850F82400FFF7F7
:1011600003FF01214FF48040FFF72BFF00208DF893
:10117000100000208DF81300E4B21E4830F814006F
:10118000039003A9E4B21C4850F82400FFF74CFF79
:10119000EDB2012D29D1E4B21848215CE4B218481F
:1011A000205C00F0C9F8E4B2164830F81400019051
:1011B00000208DF8080008208DF8090001208DF826
:1011C0000A0001A800F022F8E4B20F48205C8DF874
:1011D00000000F208DF801000F208DF80200012083
:1011E0008DF8030000A800F068F805B030BD0000DD
:1011F000A8430008AE27000814010020BB360008F1
:10120000BA360008DE2F0008A23800080021234A61
:1012100011008279002A36D0204A126803689A4366
:101220001E4B1A601E4A126803689A431C4B1A60D0
:10123000027989180A6803681A430A60194A126811
:1012400003689A43174B1A60174A126803689A4357
:10125000154B1A604279102A0CD1124A12680368A1
:101260001A43104B1A60104A126803681A430E4B57
:101270001A600EE0094A1100427989180A68036869
:101280001A430A6005E0027989180A6803689A43DC
:101290000A6070470549086070470000003C014043
:1012A000043C0140083C01400C3C0140143C01401E
:1012B0001C4901431C4A11607047F0B4002300210F
:1012C0000F22C478002C21D0174C246814F4E06459
:1012D000D4F5E064240A2300D3F104042100D2B23F
:1012E0001A4144788C4023008478144023431B0126
:1012F00004780E4D6355047864110D4D012607786E
:1013000017F01F07BE4045F8246009E00478641117
:10131000084D0126077817F01F07BE4045F82460E6
:10132000F0BC70470000FA050CED00E000E400E0BE
:1013300000E100E080E100E030B400220F2311F072
:101340000304E4B2A400A3401A00C9B28B100E4CEF
:1013500054F823309343C9B28C100B4D45F8243018
:10136000C9B28B10084C54F82330C0B211F00304FA
:10137000E4B2A40010FA04F42343C9B28C10024D65
:1013800045F8243030BC70470838014070B504007F
:101390000D0000266878002820D0012828D00328D6
:1013A00021D005280BD0062804D0082811D0092800
:1013B0000AD022E02900200000F002F921E02900F3
:1013C000200000F098F91CE02900200000F0C3F98B
:1013D00017E02900200000F021FA12E02900200087
:1013E00000F040FA0DE02900200000F061FA08E06A
:1013F0002900200000F0A1FA03E02900200000F0FD
:10140000DBFA3000C0B270BD70B504000D000026DC
:1014100094F81201032817D1287902280FDA29003D
:101420002000D4F8E02592689047E88800280AD187
:10143000F6B2002E07D1200000F054FB03E0290093
:10144000200000F0B9FA03E02900200000F0B4FA0F
:101450003000C0B270BDF8B504000D000027A888A8
:1014600006006878002864D0012832D0032840F0B4
:10147000A48094F81201022802D003280CD023E0A3
:10148000F6B2002E07D0F6B2802E04D03100C9B2D9
:10149000200000F061FC1BE0688800280AD1F6B249
:1014A000002E07D0F6B2802E04D03100C9B2200041
:1014B00000F052FC29002000D4F8E0259268904703
:1014C000200000F00FFB03E02900200000F074FA78
:1014D00073E094F81201022802D003280CD023E014
:1014E000F6B2002E07D0F6B2802E04D03100C9B279
:1014F000200000F031FC1BE06888002813D1F6B210
:10150000002E0DD0F6B2802E0AD03100C9B22000D4
:1015100000F04AFC29002000D4F8E02592689047AA
:10152000200000F0DFFA03E02900200000F044FA78
:1015300043E094F81201022802D003280CD037E0CF
:10154000F6B2002E07D0F6B2802E04D03100C9B218
:10155000200000F001FC2FE0F6B2300611D5F6B203
:1015600016F07F00282101FB004090F81A010028A6
:1015700003D0CB480121016014E0C948002101607B
:1015800010E030060ED4F6B2282000FB064090F89A
:101590007203002803D0C2480121016002E0C04864
:1015A000002101600222BE49200000F04DFA03E054
:1015B0002900200000F000FAFFE73800C0B2F2BDB9
:1015C00070B582B004000D00688880B2000AC0B215
:1015D000012808D0022818D0032822D0062862D07B
:1015E000072865D069E000A9A078D4F8E82512683A
:1015F00090470600E888402803D094F8120101289B
:1016000002D10820ADF800005CE000A9A078D4F871
:10161000E025926A9047060002207070C4F8EC65DD
:1016200050E0A878002808D0022816D00DD304284E
:1016300023D01AD3052828D02FE000A9A078D4F809
:10164000E8255268904706002CE000A9A078D4F85D
:10165000E82592689047060024E000A9A078D4F815
:10166000E825D268904706001CE000A9A078D4F8CD
:10167000E82512699047060014E000A9A078D4F884
:10168000E8255269904706000CE000A9A078D4F83C
:10169000E82592699047060004E02900200000F048
:1016A0008BF927E00EE02900200000F085F921E009
:1016B0002900200000F080F91CE02900200000F043
:1016C0007BF917E0BDF80000002813D0E888002857
:1016D00010D0BDF80000E988884202D2BDF80000B1
:1016E00000E0E888ADF80000BDF8002031002000DF
:1016F00000F0AAF973BD70B504000D00A888002899
:1017000024D1E888002821D1A87810F07F000600B5
:1017100094F81201032804D12900200000F04CF9AC
:1017200018E084F813613100C9B2200000F064FBB6
:10173000200000F0D7F9F6B2002E03D0022084F882
:10174000120107E0012084F8120103E029002000C3
:1017500000F032F970BD38B504000D0068885149B9
:10176000087050480078022804DB2900200000F0AF
:1017700023F952E094F81201022802D0032818D06D
:1017800047E04848007800280FD04648007884F8A1
:101790001001032084F8120142480178200000F073
:1017A0006EFC200000F09EF902E0200000F09AF9A3
:1017B00033E03C48007800280FD1022084F8120161
:1017C0003848007884F8100136480178200000F08D
:1017D00066FC200000F086F91AE03248007894F8A0
:1017E0001011884211D094F81011200000F057FC1D
:1017F0002C48007884F810012A480178200000F075
:101800003EFC200000F06EF902E0200000F06AF9D2
:1018100003E02900200000F0CFF831BD38B5040006
:101820000D00E888012804D02900200000F0C4F849
:1018300017E094F81201022802D0032806D00CE029
:1018400001221949200000F0FFF80AE0012214F5F6
:101850008871200000F0F8F803E02900200000F073
:10186000ABF831BD38B504000D0094F81201801EAC
:10187000012810D8D4F81401002803D00B48032104
:10188000016002E0094801210160012207492000AE
:1018900000F0DAF803E02900200000F08DF831BDF7
:1018A000DC120020EF120020E0120020E4120020E1
:1018B000F8B504000D000027688801280CD101202C
:1018C000C4F8140129002000D4F8E025926890475C
:1018D000200000F007F92FE0688802282CD1287931
:1018E000000629D1206940680600A88880B2000A55
:1018F0000700FFB2012F07D019D3032F0CD007D355
:10190000052F11D00CD312E0012060F306160EE073
:10191000022060F306160AE0032060F3061606E0D4
:10192000042060F3061602E0052060F30616206925
:101930004660200000F0D6F8F1BD38B504000D0077
:1019400094F81201801E01280FD8688801280BD155
:101950000020C4F8140129002000D4F8E025926882
:101960009047200000F0BEF803E02900200000F0BE
:1019700023F831BD90F8C8250A7090F8C9254A703F
:1019800090F8CA2590F8CB351B029A184A8090F837
:10199000CC2590F8CD351B029A188A8090F8CE2578
:1019A00090F8CF351B029A18CA80CA88C0F83C212B
:1019B000012280F81121704738B504000D00287805
:1019C000000604D58021200000F0C6F90BE0E8886D
:1019D000002804D18021200000F0BEF903E000219E
:1019E000200000F0B9F92000FFF765F931BDF8B526
:1019F00004000D0016000027002C1AD0200000F073
:101A000019F84000801C3080FFB2308878557F1C68
:101A1000FFB2032078557F1C2078002809D0FFB240
:101A200020787855641C7F1CFFB2002078557F1CFD
:101A3000F2E7F1BD010000200A78002A02D0401C24
:101A4000491CF9E7C0B27047F8B504000D00160054
:101A50000027B6B2C4F83861B6B2C4F834610220C7
:101A600084F81101B6B233002A000021200000F0F2
:101A700044F93800C0B2F2BDF8B504000D001600FC
:101A80000027B6B233002A000021200000F035F90B
:101A90003800C0B2F2BDF8B504000D0016000027F2
:101AA000B6B2C4F89063B6B2C4F88C63032084F86D
:101AB000110133009BB22A000021200000F0EAF857
:101AC0003800C0B2F2BDF8B504000D0016000027C2
:101AD00033009BB22A000021200000F0DBF8380020
:101AE000C0B2F2BD38B504000025042084F811010D
:101AF000002300220021200000F0FFF82000FFF763
:101B0000DAF82800C0B232BD38B50400002505203F
:101B100084F81101002300220021200000F0BAF80F
:101B20002000FFF7C8F82800C0B232BDF8B50400A5
:101B30000D002900C9B22000FEF7A1FB012084F8A6
:101B40001201002084F8130100200600607886420C
:101B500013D2282000FB064010F58C7007000120EE
:101B600078703E70FE800020F8704020B860002041
:101B7000F86000207861761CE8E7002006006078B5
:101B8000864213D2282000FB064010F55C70070047
:101B9000002078703E70FE800020F8704020B86011
:101BA0000020F86000207861761CE8E72000FEF74E
:101BB00080FC2000FEF7D4FB00212000FEF7D0FCC3
:101BC0002000FEF70EFD2000FEF764FCF1BD2DE9BC
:101BD000F04104000D0016001F00EDB2280609D5E3
:101BE000EDB215F07F00282101FB004010F58C704C
:101BF000804608E0EDB215F07F00282101FB00408F
:101C000010F55C70804615F07F0088F80000C5F381
:101C1000C01088F80100B6B2C8F8086088F80370F0
:101C200098F80100002803D098F80000A8F80600F2
:101C3000FFB2022F02D1002088F8040041462000A4
:101C4000FEF70FFE0020BDE8F08170B504000D0026
:101C5000EDB2280609D5EDB215F07F00282101FB71
:101C6000004010F58C70060008E0EDB215F07F0022
:101C7000282101FB004010F55C70060015F07F0084
:101C80003070C5F3C010707031002000FEF726FEE2
:101C9000002070BD2DE9F04104000D0016001F006A
:101CA000EDB215F07F00282101FB004010F55C70BB
:101CB0008046C8F80C60BFB2C8F814700020C8F89D
:101CC0001800002088F8010015F07F0088F8000057
:101CD000E078012801D1C8F8106098F800000028C9
:101CE00004D141462000FEF7EBFE03E04146200010
:101CF000FEF720FE0020BDE8F0812DE9F041040050
:101D00000D0016001F00EDB215F07F00282101FB29
:101D1000004010F58C708046012088F8010015F015
:101D20007F0088F80000C8F80C60C8F81060002038
:101D3000C8F81800C8F8147098F80000002804D1FA
:101D400041462000FEF7BCFE03E041462000FEF7BE
:101D5000F1FD0020BDE8F08170B504000D00EDB28A
:101D6000280609D5EDB215F07F00282101FB0040BF
:101D700010F58C70060006E0EDB2282000FB05404F
:101D800010F55C7006000120B07015F07F00307017
:101D9000C5F3C010C0B210F0010070703100200017
:101DA000FEF724FF002070BD70B504000D00EDB2F9
:101DB000280609D5EDB215F07F00282101FB00406F
:101DC00010F58C70060006E0EDB2282000FB0540FF
:101DD00010F55C7006000020B07015F07F003070C8
:101DE000C5F3C010C0B210F00100707031002000C7
:101DF000FEF721FF002070BD10B400231A00C9B205
:101E000061F30A1203691B6813430469236010BC61
:101E100070472DE9F04104000D0016001F00DDF8A9
:101E200018802000FEF79AFF200000F014F8C4F894
:101E3000E075C4F8E485C4F8E8652900C9B220005B
:101E4000FFF774FED4F8E405006880472000FEF731
:101E5000DFFFBDE8F0810100002070471CB50400E1
:101E600000A92000FFF786FD9DF8000010F01F007C
:101E7000C0B2002803D002280BD005D30EE000A981
:101E80002000FFF783FA10E000A92000FFF7BCFA5A
:101E90000BE000A92000FFF7DEFA06E09DF8000045
:101EA00010F080012000FFF757FF002016BD70B52D
:101EB00004000D00EDB2002D34D114F55C70060065
:101EC00094F8110103283DD1B068F169884217D216
:101ED000F069B168401AF061E078012803D1B06878
:101EE000F1684018F060F069B168884201D2F26987
:101EF00000E0B26892B2F1682000FFF7E4FD21E053
:101F0000D4F8E0050069002808D094F812010328ED
:101F100004D12000D4F8E015096988472000FFF7B4
:101F2000E1FD0FE0D4F8E005806900280AD094F8BC
:101F30001201032806D12900C9B22000D4F8E025F7
:101F400092699047002070BD70B504000D00EDB29D
:101F5000002D46D114F58C70060094F8110102286A
:101F60004FD1B068F169884211D2F069B168401A66
:101F7000F061E078012803D1B068F1684018F060A2
:101F8000F26992B2F1682000FFF776FD39E0306A1D
:101F9000B168B0FBF1F201FB120000280FD1306AEA
:101FA000B16888420BD3306A716A884207D2002236
:101FB00000212000FFF760FD0020706221E0D4F8CE
:101FC000E005C068002808D094F81201032804D165
:101FD0002000D4F8E015C96888472000FFF794FD79
:101FE0000FE0D4F8E005406900280AD094F8120107
:101FF000032806D12900C9B22000D4F8E02552698F
:102000009047002070BD10B504000023402200213D
:102010002000FFF7DCFD0023402280212000FFF795
:10202000D6FD012084F81201A078D4F8E41549689F
:102030008847002010BD10B50400D4F8E4050069FD
:102040008047032084F81201002010BD10B5040061
:10205000042084F81201D4F8E405C0688047002009
:1020600010BD10B50400D4F8E005C069002804D004
:102070002000D4F8E015C9698847002010BD38B5A4
:1020800004000D002900C9B22000D4F8E025126830
:102090009047D4F8E40580688047002032BD38B509
:1020A00004000D002900C9B22000D4F8E0255268D0
:1020B0009047002032BD10B504002000D4F8E01590
:1020C000096A8847002010BD10B504002000D4F82C
:1020D000E015496A8847002010BD50F8041B61B123
:1020E00050F8042BD30744BFA9F101039A18002329
:1020F00042F8043B091FFAD1EFE7704770B50400BE
:1021000000262000FEF74FFA00286AD02000FEF7D4
:1021100056FA0500002D01D1002063E0C5F3C04050
:10212000002804D0200000F053F930430600C5F326
:102130008040002804D0200000F0AFF830430600B3
:10214000C5F34000002805D00021080050F002002F
:10215000E1684861E80F002804D0200000F043F84F
:1021600030430600C5F3C020002804D0200000F052
:1021700060F830430600C5F3C000002804D02000FA
:1021800000F09EF930430600C5F30010002804D08B
:10219000200000F0A4F930430600C5F30030002809
:1021A00004D0200000F03AFA30430600C5F3403076
:1021B000002804D0200000F09AFA30430600C5F34E
:1021C0000050002804D0200000F0B8FA3043060088
:1021D000C5F34050002804D0200000F0BEFA304380
:1021E0000600300070BDF8B50400A07A002809D0C0
:1021F000D4F80C01060036F0020676087600D4F812
:102200000C0106600020070057F0010720694068B4
:10221000B843216948602000DFF85C1509688969C6
:1022200088470020050055F00045E0684561012021
:10223000F2BDF8B504002000DFF83C1509684969D3
:1022400088472069806807000020050055F4006574
:10225000E0684561A07A00281DD0F8071BD5002052
:10226000060056F00106D4F80C0100683043D4F89B
:102270000C11086056F00206D4F80C0100683043D7
:10228000D4F80C110860DFF8F404006850F0060080
:10229000DFF8E81408600120F2BD2DE9F0410400E8
:1022A0000027002005002000FEF7FCFC0600002EA1
:1022B00000F08B80F00740F185803900C9B2200022
:1022C00000F05EFA0500E80724D50120B8408046FA
:1022D0002069406B30EA080021694863002005004E
:1022E00055F0010514EB8700806985603900C9B29B
:1022F0002000DFF88424126852689047E0780128B3
:1023000008D1002F06D194F81101042802D1200031
:10231000FEF7D1FCC5F38000002807D0002005009F
:1023200055F0040514EB870080698560C5F3C00093
:10233000002807D00020050055F0080514EB8700A1
:1023400080698560C5F30010002807D000200500D3
:1023500055F0100514EB870080698560C5F34010C7
:10236000002807D00020050055F0200514EB870059
:1023700080698560C5F38010002807D00020050023
:1023800055F0400514EB870080698560C5F3400077
:10239000002807D00020050055F0020514EB870047
:1023A00080698560C5F3C01000280BD0390020007B
:1023B00000F0E4F80020050055F0800514EB8700DC
:1023C000806985607F1C760871E70120BDE8F08197
:1023D0002DE9F04104005FF0000800200600200015
:1023E000FEF74CFC0500002D67D0E80761D541469B
:1023F000C9B22000FEF74BFC0600F00730D50020E4
:10240000060056F0010614EB8800406D8660E07807
:10241000012811D114EB8800406D006907002820C5
:1024200000FB0840D0F878037903490B401A2821B3
:1024300001FB0841C1F888034146C9B22000CE4AD9
:10244000126812689047E078012809D1B8F1000FAE
:1024500006D194F81101052802D12000FEF72BFCCB
:10246000C6F34000002807D00020060056F0020600
:1024700014EB8800406D8660C6F38000002807D00A
:102480000020060056F0040614EB8800406D8660BC
:10249000C6F3C00000280CD02000B749096889683D
:1024A00088470020060056F0080614EB8800406DAF
:1024B000866018F101086D0895E70120BDE8F081FC
:1024C00038B504002000AC490968C9688847002075
:1024D000050055F00805E0684561012032BDF8B5FA
:1024E00004000020070057F01007E0688069B84337
:1024F000E1688861E068006A050015F00F00282196
:1025000001FB004010F55C700600680C10F00F0035
:10251000012808D0022807D003281AD0042819D08F
:10252000062818D023E022E02809400510D0C5F382
:102530000A1292B2F1682000FDF78BFEC5F30A1073
:10254000F1684018F060B069C5F30A110818B0616D
:102550000DE00CE00BE0082214F5B9612000FDF756
:1025600078FEB069C5F30A110818B061FFE7E068AA
:1025700080693843E16888610120F2BD2DE9F843A4
:1025800004000D005FF0000800200600282000FB7A
:10259000054010F58C7007007869B969401A8046CB
:1025A000B868404501D2B868804618F10300800839
:1025B000814614EB8500806980690600B0B28145D0
:1025C00029D2B8697969884225D27869002822D051
:1025D0007869B969401A8046B868404501D2B86840
:1025E000804618F103008008814643469BB22A00CA
:1025F000D2B2F9682000FDF708FEF86818EB000079
:10260000F860B86918EB0000B86114EB85008069C8
:1026100080690600D2E70120BDE8F2832DE9F84F7A
:102620000400002081460020050000200600002054
:102630000700002080460020824659F001092069E9
:10264000406830EA09002169486000212000FDF758
:102650003FFF00208346607883450CD214EB8B004B
:102660008069FF21816014EB8B00406DFF21816048
:102670001BF1010BEFE720695FF0FF318161012061
:1026800060F30F05012060F31F452069C56156F016
:10269000080656F0010656F0040656F002062069B8
:1026A000466157F0010757F0080757F0020757F047
:1026B000040757F0200720690761206900688046F9
:1026C00038F4FE682069C0F800802000FEF7F3FAB5
:1026D000002082465AF4805AE068C0F814A0200016
:1026E00025490968096988470120BDE8F28F70B55E
:1026F00004002000FEF78DF8E068C06806002000A6
:10270000FEF76DF8032808D10020A0704FF4007088
:10271000A080092060F38D2606E00120A0704020F3
:10272000A080052060F38D26E068C66000200500CB
:1027300055F40055E0684561012070BD38B50400CE
:102740000020050020000C490968C969884755F434
:102750008015E0684561012032BD38B504000020D5
:102760000500200004490968096A884755F40015E6
:10277000E0684561012032BD3001002010ED00E02D
:1027800030B4020015692D692C0015696D6B2B00A2
:1027900033FA01F515F0010554EAC514C9B212EB7C
:1027A0008105AD69AD682540280030BC7047010047
:1027B00040B2002809D540B210F00F02DFF8BC3358
:1027C000D2180B0102F8043C04E040B2DFF8B02359
:1027D0000B018354704710B50400B4F1807F01D31E
:1027E000012013E02002000A401EDFF89813086061
:1027F0000F215FF0FF30FFF7DBFFDFF88C030021D4
:102800000160DFF8880307210160002010BD10B5CA
:1028100000F075F800F0E6F94FF4E060FEF748FDCF
:1028200000F0B1F800F09BF800F081F900F0DEF85C
:1028300001220121DFF8580300F0B4FB012202213C
:10284000DFF84C0300F0AEFBFA2000F074F800F063
:102850007BF90422FA21002000F04EFADFF834035D
:1028600000680128FAD10020642809DADFF828136B
:10287000DFF8282332F8102021F81020401CF3E75D
:102880000020C8281FDA022190FBF1F202FB11029E
:10289000002A0CD1022190FBF1F1DFF8FC2232F882
:1028A000111089B2090ADFF8F822815409E00221E7
:1028B00090FBF1F1DFF8E02232F81110DFF8E022AE
:1028C0008154401CDDE7DFF8DC0200210160DFF805
:1028D000D80200210160DFF8D40200210160002449
:1028E000C82C07DA0021DFF8B802201800F0FDFB41
:1028F000641CF5E7DFF89C0200210160AEE780B5BB
:1029000001215FF40010FEF72FFB01210420FEF7E8
:1029100049FB01215FF00050FEF744FB0121082034
:10292000FEF722FB01210120FEF71EFB01211020F2
:10293000FEF71AFB01BD38B504009D4890FBF4F08A
:102940000500B5F5803F02DB4FF6FF700500012260
:10295000290089B25FF0804000F003FB31BD80B5F3
:1029600094480090964B944A01219448FFF751FAFD
:1029700001BD01B40098002803D00098401E0090CB
:10298000F8E701B0704780B501210120FEF70AFB8E
:102990008C484FF6FF7141608A48002101808948C8
:1029A0000021018187480021418086495FF08040F5
:1029B00000F0A2FA63215FF0804000F0D5FA012216
:1029C0004AF210415FF0804000F0CBFA20215FF026
:1029D000804000F0F2FA80215FF0804000F0F6FACB
:1029E00001215FF0804000F0C1FA01BD00B59DB04B
:1029F00038208DF8000000208DF8010001208DF8AE
:102A0000020001208DF8030000A8FEF756FC01210A
:102A10006D48FEF7A9FA01214FF48070FEF7D1FA54
:102A200000200D9069480E905C480F900020109097
:102A300064201190002012904FF4806013904FF4A6
:102A4000006014904FF4005015904FF48070169071
:102A50005FF400301790002018900120199000209A
:102A60001A9000201B900DA9594800F031FC01215B
:102A7000574800F059FC01A8FEF72BFB4E200190AF
:102A800003208DF8080000208DF80B0001A95148A3
:102A9000FEF7CAFA00200390002004900020059061
:102AA0000020069003A800F0EFFC00200790012012
:102AB0008DF8200000208DF821005FF080500990F3
:102AC0005FF0C0600A9000200B9004208DF8300069
:102AD00007A9414800F0B0FC0123012201213E4832
:102AE00000F0F0FC0123022202213B4800F0EAFC46
:102AF000012303220321384800F0E4FC01230422CF
:102B00000621354800F0DEFC0121334800F062FD6B
:102B10000121314800F051FD01212F4800F0C5FC92
:102B2000012210212A4800F049FC1DB000BD80B5EB
:102B30002A4800684FF47A71B0FBF1F0FFF74BFEC2
:102B4000002800D0FEE701BD00B583B001210820B8
:102B5000FEF70AFA4FF47040009001208DF804004F
:102B600000208DF8060003208DF8050000208DF868
:102B7000070000A91A48FEF757FA07BD18ED00E054
:102B800000E400E014E000E018E000E010E000E005
:102B900000080040BC120020F40F00202C0F002081
:102BA000BC100020CC120020D0120020C81200203F
:102BB00040D10C00B80000209C0000203C090020FF
:102BC00044000020A8120020010040004C200140D9
:102BD0001064024000000240002001402801002053
:102BE000000C024000B587B001210720FEF7BCF9B8
:102BF00001214FF48040FEF7D5F901210620FEF7B0
:102C0000B3F902208DF8040000208DF806000220A0
:102C10008DF8070001208DF805004FF480600090CA
:102C200000A9B148FEF700FA05220A21AE48FEF7D6
:102C300060FA0820009000A9AC48FEF7F5F90522DB
:102C40000321AA48FEF755FA4FF48040009000A9EE
:102C5000A548FEF7E9F905220321A448FEF749FA41
:102C600001208DF804004FF49050009001208DF861
:102C700007004FF480519C48FEF737FA4FF400717B
:102C80009948FEF732FA00A99748FEF7CDF902A855
:102C900000F0D6FC01208DF8040048F210000090EE
:102CA00001208DF807004FF400419148FEF71DFA0E
:102CB00010218F48FEF719FA00A98D48FEF7B4F9E4
:102CC00002A800F0BDFC4FF40060ADF80C004FF41A
:102CD0008270ADF80A004FF40070ADF81200382091
:102CE000ADF8140002A9834800F08AFC0121814854
:102CF00000F0C7FC07B000BD2DE9F84304000D004B
:102D000016005FF06009E4B214F580775FF0000808
:102D1000F6B2700050FA85F010EB09096020814688
:102D20004FF4C07007000121724800F09CFC4FF482
:102D300080516D48FEF7DBF902216E4800F0B1FCCE
:102D40000028F9D0494689B26A4800F0A8FC8021E1
:102D5000684800F0A6FC0128F9D00221654800F07F
:102D6000A0FC0028F9D08021624800F09AFC0128DC
:102D7000F9D002215F4800F094FC0028F9D04FF40C
:102D800080515948FEF7B1F94FF47A70FFF7F1FD21
:102D90008021584800F085FC0128F9D04FF40071DB
:102DA0005148FEF7A4F90221524800F07AFC0028AD
:102DB000F9D0494689B24F4800F071FC80214D4856
:102DC00000F06FFC0128F9D002214A4800F069FCAC
:102DD0000028F9D08021474800F063FC0128F9D091
:102DE0000221444800F05DFC0028F9D04FF4007146
:102DF0003D48FEF77AF94FF47A70FFF7BAFD80216B
:102E00003C4800F04EFC0128F9D04FF4004138480E
:102E1000FEF76DF90221374800F043FC0028F9D095
:102E2000494689B2334800F03AFC8021314800F02D
:102E300038FC0128F9D002212E4800F032FC00288D
:102E4000F9D080212B4800F02CFC0128F9D0022178
:102E5000284800F026FC0028F9D04FF4004124480F
:102E6000FEF743F94FF47A70FFF783FD8021214884
:102E700000F017FC0128F9D010211D48FEF737F9A2
:102E800002211C4800F00DFC0028F9D0494689B207
:102E9000184800F004FC8021164800F002FC0128CC
:102EA000F9D00221134800F0FCFB0028F9D0802162
:102EB000104800F0F6FB0128F9D002210D4800F07F
:102EC000F0FB0028F9D010210948FEF70EF94FF465
:102ED0007A70FFF74EFD8021064800F0E2FB0128E2
:102EE000F9D0BDE8F1830000000402400008024070
:102EF0000000024000380040002203881A00224BE4
:102F000098420ED0264B98420BD0B0F1804F08D09B
:102F10001E4B984205D01E4B984202D01D4B984242
:102F200004D14FF68F731A404B881A431A4B9842BC
:102F300007D01A4B984204D04FF6FF431A400B8932
:102F40001A4302804B68C3620B8803850E4B98427C
:102F500002D0134B984201D18B7A038601238382DE
:102F60007047018582827047C1627047C9B20029EB
:102F700004D0028852F00102028004E002884FF679
:102F8000FE731A40028070470000014000040040B8
:102F900000080040000C00400010004000140040F9
:102FA00000040140D2B2002A03D083890B438381FD
:102FB00002E083898B438381704782884FF68F7349
:102FC0001A40828082880A438280704702894FF6C5
:102FD0007F731A40028102890A430281704701000F
:102FE00080B5B1485FF4E1310160AF4800218180D4
:102FF000AD480021C180AC484FF4C0610181AA48AE
:1030000000218181A8480C214181A749002000F0BE
:1030100055FB012240F22551A44800F0D1FB2720A6
:103020008DF8000000208DF8010000208DF80200CE
:1030300001208DF8030000A8FEF73FF9002002BD33
:103040000020704770B504000D0016002000002815
:1030500010D001280FD002280ED003280DD004284C
:103060000CD020280BD0212822D0222839D0232888
:1030700038D038E037E036E035E034E033E0287827
:10308000697850EA0120A97850EA0140E97850EACD
:103090000160874908608648297901718448697907
:1030A00041718348A9798171012000F05FF81AE02D
:1030B0007F48006828707E480068000A68707C4875
:1030C0000068000CA8707A480068000EE870784824
:1030D0000079287176484079687175488079A871BF
:1030E00001E000E0FFE7002070BD10B4020070486E
:1030F0008079072807D16F4800686F4B147814F067
:103100007F04C45408E06A488079082804D16948DB
:103110000068694B1478C45466480068401C654BCD
:10312000186064480068B0F5006F02D16148002360
:103130000360002010BC704710B40200642901D362
:10314000642001005D48007888420CD25B4800781A
:10315000805C5A4B1B785A4C185558480078401CD4
:10316000564B1870EEE7002010BC704710B50400F5
:10317000E4B2002C1ED14C485FF4E13101604A48B2
:103180000021818048480021C18047484FF4C06138
:10319000018145480021818143480C2141814249F8
:1031A000002000F08BFA012240F225513F4800F048
:1031B00007FB60E03E480079002803D002280AD0CF
:1031C00004D30DE038480021C1800EE036484FF4AA
:1031D0004051C18009E034484FF40051C18004E0FF
:1031E0000020FFF7C3FF022046E031484079002865
:1031F00003D002280AD004D30DE02B48002101811E
:103200000EE029484FF48061018109E026484FF41F
:10321000C061018104E00020FFF7A8FF02202BE03D
:1032200023488079072802D0082804D010E01E48DF
:103230000021818011E01C480089002803D11A4830
:103240000021818003E018484FF48051818004E020
:103250000020FFF78BFF02200EE013481449096895
:1032600001601148002181810F480C2141810E49E4
:10327000002000F023FA002010BD80B540F2255157
:103280000A4800F0D7FA002803D000210020FFF7F9
:103290002CFF0821054800F0BEFA002802D00348A0
:1032A00000F08AFA01BD000098120020004800409A
:1032B0000C010020C81200203C010020EE1200206A
:1032C0008411002080B541210020FFF70EFF01BDD1
:1032D00010B4002203681A00534B1A400B68CC68E4
:1032E00023434C6923438C692343CC6923430C6AF1
:1032F00023434C6A23438C6A23434C6B23438C6BDC
:1033000023431A43026043691A00D208D200CB6AF1
:103310000C6B23431A4342610B6943604B68836023
:103320008B68C36010BC7047C9B2002904D0026822
:1033300052F00102026003E002685208520002608B
:103340007047010000200A68D20702D50122100050
:1033500001E000221000C0B2704730B4020000202B
:103360000024304DAA4202D2304D2B0001E0304DF6
:103370002B008D0002D55D682C0001E01D682C003B
:103380002C4D2C400C4202D00125280001E00025E4
:103390002800C0B230BC7047224B984202D2234B67
:1033A0001A0001E0224B1A008B0003D5214B0B4081
:1033B000D36002E01F4B0B409360704710B40B06C4
:1033C0000BD5D2B2002A04D0436953F08003436185
:1033D00003E0436933F08003436180290DD0D2B20A
:1033E000002A05D0036811F01E042343036004E0A3
:1033F000036811F01E04A343036010BC7047094B1F
:10340000984202D2094B1A0001E0094B1A008B00C6
:1034100003D5084B0B40D36002E0064B0B40936092
:1034200070470000106402403F801CF000600240C2
:10343000006402407D0F7D0F30B4002300224468F9
:1034400023006B4C23400C790D6855EA0424234378
:10345000436084682300674C23400C69CD682C438B
:103460008D682C434D7954EA450423438360C46A34
:10347000230033F470030C7D641E2243D2B253EA5E
:103480000253C36230BC704700215B4A12681100CE
:103490005A4A1140026843681A4383681A43C36852
:1034A0001A431143544A11607047C9B2002904D02D
:1034B000826852F00102826003E082685208520082
:1034C00082607047F0B400250024C9B20A2917DBD6
:1034D000C66835000726B1F10A075FF0030C17FB39
:1034E0000CF7BE403400A543DBB2B1F10A06032756
:1034F00016FB07F613FA06F634002543C56011E003
:10350000066935000726032711FB07F7BE40340084
:10351000A543DBB2032611FB06F613FA06F63400C8
:1035200025430561D2B2072A15DA466B35001F26FE
:10353000571E5FF0050C17FB0CF7BE403400A54387
:10354000C9B2561E052716FB07F611FA06F6340017
:10355000254345632FE0D2B20D2A15DA066B3500FC
:103560001F26D71F5FF0050C17FB0CF7BE40340079
:10357000A543C9B2D61F052716FB07F611FA06F6B2
:1035800034002543056316E0C66A35001F26B2F1F4
:103590000D075FF0050C17FB0CF7BE403400A54388
:1035A000C9B2B2F10D06052716FB07F611FA06F6A9
:1035B00034002543C562F0BC7047C9B2002904D06D
:1035C000826852F48072826003E0826832F4807212
:1035D00082607047C9B2002904D0826852F4007238
:1035E000826003E0826832F40072826070470000FB
:1035F000FFFEFFFCFDF7FFC004230140E030FCFFAD
:1036000010B4002203881A0012F441520B884C882F
:1036100023438C882343CC8823430C8923434C8940
:1036200023438C892343CC8923431A430280838B11
:103630004FF2FF74234083830B8A038210BC7047D0
:103640000021018000214180002181800021C18072
:103650000021018100214181002181810021C1815E
:10366000072101827047C9B2002904D0028852F0B4
:103670004002028004E002884FF6BF731A400280C5
:103680007047C9B2002904D0828852F004028280B7
:1036900004E082884FF6FB731A4082807047818174
:1036A00070470200002013890B4202D0012318004A
:1036B00001E000231800C0B2704700002DE9F0437C
:1036C00085B004000D005FF00009002600275FF0C0
:1036D0000008A8890028208A814639F44059E888E2
:1036E00050EA0909A4F81090A0898146314810EAEF
:1036F0000909A888298908436989084350EA090902
:10370000A4F80C90A08A814639F44079A88950EA3F
:103710000909A4F8149000A8FDF7A6FB23488442E9
:1037200002D02348844202D10398060001E00298A7
:103730000600A089000408D5192000FB06F02968BE
:103740004900B0FBF1F0070007E0192000FB06F08C
:1037500029688900B0FBF1F007006420B7FBF0F0A6
:10376000000181465FEA1910642101FB1070804658
:10377000A08900040AD55FEAC80032306421B0FB9A
:10378000F1F010F0070050EA090909E05FEA0810BB
:1037900032306421B0FBF1F010F00F0050EA09095B
:1037A000A4F8089005B0BDE8F083000000100140C7
:1037B00000140140F3E9FFFF8088C005C00D704789
:1037C000F0B4002300240025002689B240F66A17D1
:1037D000B94206000F00FFB27F09FFB23B0089B279
:1037E00011F01F073C000127A7403D00012B01D12C
:1037F0000C3604E0022B01D1103600E01436D2B2B0
:10380000002A03D037682F43376002E03768AF43A0
:103810003760F0BC70470200002089B2B1F5007F2C
:1038200013880B4202D00123180001E00023180086
:10383000C0B2704770B402000023002500240020AD
:1038400089B240F66A16B1420E00F6B27609F6B2B7
:10385000340089B211F01F063500012616FA05F56D
:10386000012C02D19689354006E0022C02D1168A3D
:10387000354001E0968A354089B20E0AB6B233006F
:10388000012616FA03F316883340002D04D0002BCE
:1038900002D00126300001E000263000C0B270BC2A
:1038A0007047060070B504000D000223D4F8EC0543
:1038B000B0F8392081212000FEF789F90223D4F8DD
:1038C000EC05B0F8402001212000FEF780F9032329
:1038D000082282212000FEF77AF9DFF81C03060097
:1038E0000220307100207071C44800688047D4F80D
:1038F000EC05B0F84030C24A01212000FEF7CAF9B9
:10390000002070BD38B504000D0081212000FEF7B5
:103910009CF901212000FEF798F982212000FEF792
:1039200094F9B64840688047002032BDF8B50400DD
:103930000D00287810F06000C0B200282DD020289B
:1039400025D1E88800281AD0287800060BD5EA8807
:10395000AC496878A94B9B689847EA88A949200038
:10396000FEF772F811E06878A7490860E888A7496F
:103970000860EA88A3492000FEF78DF805E00022E0
:10398000002168789D4B9B689847002034E029000F
:103990002000FEF711F802202EE06878062804D0F7
:1039A0000A2817D00B281BD025E0688880B2000AAF
:1039B00080B2212807D196480700E8883B2801DB20
:1039C0003A2600E0EE88320092B239002000FEF77D
:1039D0003BF810E001228F492000FEF735F80AE09D
:1039E000A878002803D1A8788A49086003E0290054
:1039F0002000FDF7E1FF0020F2BD10B50400824871
:103A00000068FF280AD0814802687E497E48006825
:103A10007A4B9B6898477C48FF210160002010BDCD
:103A2000F8B504000D007C480078012844D17B489B
:103A30000068002803D17848002101703CE0D4F8E8
:103A4000EC05B0F839007549096888421BD2744802
:103A500000680600D4F8EC05B0F83900070070489B
:103A60000068D4F8EC15B1F8391010FA81F06C49FF
:103A700008606A480068D4F8EC15B1F83910401AAB
:103A8000664908600FE06648006806006348006801
:103A900007006348006861490968081860490860C0
:103AA0005E4800210160BFB23B00B6B25D483218EB
:103AB00081212000FEF721F90020F2BD70B504003D
:103AC0000D00EDB2282000FB0540D0F88803060069
:103AD000B6B231004A48494A12699047D4F8EC0519
:103AE000B0F84030464A01212000FEF7D3F800200C
:103AF00070BD10B504004C480068411C4A4A116072
:103B0000052805D1484800210160200000F002F896
:103B1000002010BD70B504003F480078012865D032
:103B20003F480068B0F5006F02D13D4800210160B8
:103B30003B4800683D490968884203D13648002166
:103B4000017053E03948006835490968884206D257
:103B500033480068D0F500603049086006E033481B
:103B600000682F490968401A2C490860D4F8EC0510
:103B7000B0F839002949096888421BD228480068F2
:103B80000500D4F8EC05B0F83900060024480068B8
:103B9000D4F8EC15B1F8391010FA81F0204908601A
:103BA0001E480068D4F8EC15B1F83910401A1B49CA
:103BB00008600FE01A480068050018480068060011
:103BC000174800681549096808181549086013481E
:103BD00000210160104801210170B6B23300ADB27E
:103BE00010482A1881212000FEF787F870BD0200D6
:103BF000432008800E487047E8000020D4000020D1
:103C0000E8110020B41200202C010020D412002062
:103C100012000020C4120020ED120020D01200205B
:103C2000CC1200203C010020D8120020C812002035
:103C30000000002080B5DFF858010168DFF84C0172
:103C40000068FFF78AFB002877D0DFF8480100689A
:103C500000285ED0DFF834010068FFF772FB00280F
:103C6000F8D1DFF82C010168DFF820010068FFF7C8
:103C700093FBDFF82801DFF8201109688160DFF885
:103C800014010068B0F5803F03D2DFF80801006836
:103C900001E04FF6FF70DFF804110861DFF8FC1057
:103CA000DFF8E8000068FFF713FB0121DFF8DC0014
:103CB0000068FFF739FBDFF8DC000068B0F5803FF3
:103CC00003D2DFF8D000006801E04FF6FF70DFF8A4
:103CD000C810096811EB4000DFF8BC100860DFF87D
:103CE000B4000068B0F5803F03D2DFF8A800006898
:103CF00001E04FF6FF70DFF89C100968081ADFF842
:103D0000941008600121DFF884000068FFF70CFBC5
:103D100013E00021DFF874000068FFF705FBDFF80F
:103D200070000168DFF864000068FFF735FB0021D0
:103D3000DFF86400006800F035F801BD80B5FFF7DA
:103D400079FF01BD80B5FFF775FF01BD80B5022188
:103D5000DFF84C00FFF7A5FC002813D0DFF828009F
:103D60000068022806D100F01EF8010089B2042084
:103D700000F06EF800F017F8010089B2DFF82000BB
:103D8000FFF78DFC01BD00001C0100202001002078
:103D90002401002018010020C01200202812002059
:103DA000003C0040704700202449097800292FD1A9
:103DB00023490988002915D122490988224A32F865
:103DC000111008001F490988491C1E4A11801D490D
:103DD0000988302902D11B4900220A801849012292
:103DE0000A8029E019490988174A32F81110080099
:103DF00016490988491C154A118014490988302937
:103E000002D1124900220A800D4900220A8013E0E3
:103E10000C4909880C4A32F91110B1F5004108002B
:103E200008490988491C074A118006490988302930
:103E300002D1044900220A8080B27047EC120020AF
:103E4000EA120020E8120020E841000838010020B2
:103E500081B000220092064A0092009A10F10803F5
:103E60009A180092009A89B2116001B07047000060
:103E70000074004080B54E48006850F001004C4985
:103E800008604C4800210160494800684A490840E0
:103E90004749086049484A4901604548006830F48C
:103EA00080204349086047480021016000F005F880
:103EB00045485FF00061016001BD82B000200190C3
:103EC000002000903A48006850F48030384908607B
:103ED0003748006810F4003000900198401C0190B1
:103EE0000098002803D10198B0F5A06FF0D13048B8
:103EF0000068800302D50120009001E000200090BE
:103F0000009801283ED13148006850F080502F4978
:103F100008602F48006850F480402D49086025480B
:103F20002449096801602348006850F40040214991
:103F300008602048006850F4A0501E4908601F48DF
:103F4000244901601A48006850F0807018490860E0
:103F5000174800688001FBD51F4840F205610160E9
:103F60001448006880088000124908601148006801
:103F700050F002000F4908600E48006810F00C0075
:103F80000828F9D10B48006830F40000094908609E
:103F90001248134901600648006850F080600449E7
:103FA0000860034800680001FBD502B070470000BC
:103FB0000038024008380240FFFFF6FE0438024095
:103FC000103000240C38024008ED00E04038024078
:103FD0000070004008544007003C02408438024012
:103FE000003000500200122008802E487047020066
:103FF000042008802C48704738B504000D00E4B256
:10400000002C05D12A0029492948FDF7F0FC04E0DD
:104010002A0026492748FDF7EAFC244832BD38B576
:1040200004000D002A0021492348FDF7E0FC1F4849
:1040300032BD38B504000D00E4B2002C05D12A00D1
:104040001A491E48FDF7D3FC04E02A0017491C4812
:10405000FDF7CDFC154832BD38B504000D00E4B2C3
:10406000002C05D12A0011491648FDF7C0FC04E0D8
:104070002A000E491348FDF7BAFC0C4832BD38B58A
:1040800004000D00E4B2002C05D12A0007490E48B7
:10409000FDF7ADFC04E02A0004490B48FDF7A7FC3E
:1040A000024832BDE80000203401002064120020E4
:1040B00070420008944200083C4300085043000846
:1040C00060430008904300087043000840B2002895
:1040D00008D540B210F00F02174BD2180B0102F8AE
:1040E000043C03E040B2154A0B018354704710B5FD
:1040F0000400B4F1807F01D3012010E02002000A07
:10410000401E0F4908600F215FF0FF30FFF7DEFF10
:104110000C48002101600C4807210160002010BDFF
:1041200080B50A4800681821B0FBF1F0FFF7DFFF07
:10413000002800D0FEE701BD18ED00E000E400E03B
:1041400014E000E018E000E010E000E028010020AA
:10415000C0B2002802D0012801D001E000E0FFE752
:104160007047704770477047704770477047FEE769
:10417000FEE7FEE7FEE7704770477047704780B57F
:104180001048807A00280AD00F48006830F00600F6
:104190000D490860FFF76EFE0A48FCF7B5FD5FF4B5
:1041A0008020FDF777F801BD80B50648FDF7A6FF32
:1041B00001BD80B505490648FFF721F905480121F1
:1041C000016001BD3C09002010ED00E0200000105E
:1041D00010640240BC12002080B5FFF773F8012084
:1041E000FDF758F801BD00000000B4102021FB309D
:1041F000FF3FEB4D815A8B65D96E4076A27BE67E00
:10420000FF7FE67EA27B4076D96E8B65815AEB4DAF
:10421000FF3FFB302021B41000004CEFE0DE05CF63
:1042200001C015B27FA5759A2791C0895E841A8155
:1042300001801A815E84C0892791759A7FA515B285
:1042400001C005CFE0DE4CEF10B5074979441831C5
:10425000064C7C44163404E00A68081D511888474F
:104260000146A142F8D110BD5000000070000000CE
:1042700053544D3332205669727475616C20436F0C
:104280006D506F727420696E204853206D6F6465A5
:104290000000000053544D3332205669727475612A
:1042A0006C20436F6D506F72742020696E204653EE
:1042B000204D6F646500000023DEFFFFB411000095
:1042C0003C0100200000000067CAFFFF3C01000025
:1042D0004802000000000020000000004EF6885157
:1042E000CEF20001086840F4700008604FF00070E2
:1042F000E1EE100A7047000000F00BF8002801D032
:10430000FFF7A2FF0020C046C046FEF780FA00F08B
:1043100002F80120704700F001B800000746384657
:1043200000F002F8FBE7000080B5C046C046024A34
:1043300011001820ABBEFBE72600020053544D6964
:1043400063726F656C656374726F6E69637300008E
:104350003030303030303030303530420000000006
:1043600030303030303030303035304300000000F5
:1043700056435020496E74657266616365000000A3
:104380000148804701480047753E00089D430008EA
:1043900056435020436F6E6669670000C046C046B2
:1043A000FFF79CFFFFF7A8FF01000000FFF7DEBE4C
:1043B000FFF7DDBEFFF7DCBEFFF7DBBEFFF7DABEBF
:1043C000FFF7D9BEFFF7D8BEFFF7D7BEFFF7D6BEBF
:1043D000FFF7FEBFFFF7FEBFFFF7FEBFFFF7FEBF11
:1043E000FFF7FEBFFFF7FEBFFFF7F6BEFFF7FEBF0A
:1043F000FFF7FEBFFFF7FEBFFFF7FEBFFFF7A2BC50
:10440000FFF7FEBFFFF7FEBFFFF7FEBFFFF7FEBFE0
:10441000FFF7FEBFFFF7FEBFFFF7FEBFFFF7FEBFD0
:10442000FFF7FEBFFFF7FEBFFFF7FEBFFFF7FEBFC0
:10443000FFF7FEBFFFF7FEBFFFF7FEBFFFF7FEBFB0
:10444000FFF7FEBFFFF7FEBFFFF7FEBFFFF7FEBFA0
:10445000FFF7FEBFFFF7FEBFFFF7FEBFFFF7FEBF90
:10446000FFF7FEBFFFF7FEBFFEF707BFFFF7FEBF78
:10447000FFF7FEBFFFF7FEBFFFF781BEFFF7FEBFEE
:10448000FFF7FEBFFFF7FEBFFFF7FEBFFFF756BC0B
:10449000FFF7FEBFFFF7FEBFFFF7FEBFFFF756BCFB
:1044A000FFF7FEBFFFF7FEBFFFF7FEBFFFF7FEBF40
:1044B000FFF77FBEFFF7FEBFFFF7FEBFFFF7FEBFB0
:1044C000FFF7FEBFFFF7FEBFFFF7FEBFFFF7FEBF20
:1044D000FFF7FEBFFFF7FEBFFFF7FEBFFFF764BEAB
:1044E000FFF7FEBFFFF7FEBFFFF7FEBFFFF7FEBF00
:1044F000FFF7FEBFFFF7FEBFFFF7FEBFFFF7FEBFF0
:10450000FFF7FEBFFFF7FEBFFFF7FEBFFFF7FEBFDF
:10451000FFF7FEBFFFF7FEBF09024300020100C024
:104520003209040000010202010005240010010507
:10453000240100010424020205240600010705826B
:10454000030800FF09040100020A0000000705013A
:10455000024000000705810240000000A538000865
:10456000053900082D39000800000000FB3900085B
:10457000213A0008BD3A0008F33A000800000000A4
:1045800000000000EF3B0008AF1E0008491F0008B4
:104590005D1E000863200008072000084D20000869
:1045A00037200008B7200008C920000800000000DC
:1045B00000000000E53F0008EF3F00081F40000832
:1045C000F93F000833400008594000087F400008C8
:1045D0002141000851410008634100086941000879
:1045E0006B4100086541000867410008E12F0008A1
:1045F0004130000845300008EB3000083931000830
:104600001201000200000040830440570002010232
:104610000301000000000000010203040102030482
:104620000607080900C2010000000800000002405F
:10463000FFFF000001000000B860024000000028F9
:10464000007A030AFF000000700000200403090440
:04465000180000004E
:040000050800439D0F
:00000001FF
